{
  "contractName": "MyERC20",
  "abi": [
    {
      "inputs": [],
      "stateMutability": "nonpayable",
      "type": "constructor"
    },
    {
      "anonymous": false,
      "inputs": [
        {
          "indexed": true,
          "internalType": "address",
          "name": "owner",
          "type": "address"
        },
        {
          "indexed": true,
          "internalType": "address",
          "name": "spender",
          "type": "address"
        },
        {
          "indexed": false,
          "internalType": "uint256",
          "name": "value",
          "type": "uint256"
        }
      ],
      "name": "Approval",
      "type": "event"
    },
    {
      "anonymous": false,
      "inputs": [
        {
          "indexed": true,
          "internalType": "address",
          "name": "previousOwner",
          "type": "address"
        },
        {
          "indexed": true,
          "internalType": "address",
          "name": "newOwner",
          "type": "address"
        }
      ],
      "name": "OwnershipTransferred",
      "type": "event"
    },
    {
      "anonymous": false,
      "inputs": [
        {
          "indexed": false,
          "internalType": "uint256",
          "name": "tokensSwapped",
          "type": "uint256"
        },
        {
          "indexed": false,
          "internalType": "uint256",
          "name": "ethReceived",
          "type": "uint256"
        },
        {
          "indexed": false,
          "internalType": "uint256",
          "name": "tokensIntoLiqudity",
          "type": "uint256"
        }
      ],
      "name": "SwapAndLiquify",
      "type": "event"
    },
    {
      "anonymous": false,
      "inputs": [
        {
          "indexed": true,
          "internalType": "address",
          "name": "from",
          "type": "address"
        },
        {
          "indexed": true,
          "internalType": "address",
          "name": "to",
          "type": "address"
        },
        {
          "indexed": false,
          "internalType": "uint256",
          "name": "value",
          "type": "uint256"
        }
      ],
      "name": "Transfer",
      "type": "event"
    },
    {
      "inputs": [
        {
          "internalType": "uint256",
          "name": "",
          "type": "uint256"
        }
      ],
      "name": "black_list_address",
      "outputs": [
        {
          "internalType": "address",
          "name": "",
          "type": "address"
        }
      ],
      "stateMutability": "view",
      "type": "function"
    },
    {
      "inputs": [],
      "name": "lp_tax",
      "outputs": [
        {
          "internalType": "uint256",
          "name": "",
          "type": "uint256"
        }
      ],
      "stateMutability": "view",
      "type": "function"
    },
    {
      "inputs": [],
      "name": "owner",
      "outputs": [
        {
          "internalType": "address",
          "name": "",
          "type": "address"
        }
      ],
      "stateMutability": "view",
      "type": "function"
    },
    {
      "inputs": [],
      "name": "renounceOwnership",
      "outputs": [],
      "stateMutability": "nonpayable",
      "type": "function"
    },
    {
      "inputs": [],
      "name": "tax_enabled",
      "outputs": [
        {
          "internalType": "bool",
          "name": "",
          "type": "bool"
        }
      ],
      "stateMutability": "view",
      "type": "function"
    },
    {
      "inputs": [
        {
          "internalType": "address",
          "name": "newOwner",
          "type": "address"
        }
      ],
      "name": "transferOwnership",
      "outputs": [],
      "stateMutability": "nonpayable",
      "type": "function"
    },
    {
      "inputs": [],
      "name": "uniswapV2Pair",
      "outputs": [
        {
          "internalType": "address",
          "name": "",
          "type": "address"
        }
      ],
      "stateMutability": "view",
      "type": "function"
    },
    {
      "inputs": [],
      "name": "uniswapV2Router",
      "outputs": [
        {
          "internalType": "contract IUniswapV2Router02",
          "name": "",
          "type": "address"
        }
      ],
      "stateMutability": "view",
      "type": "function"
    },
    {
      "stateMutability": "payable",
      "type": "receive"
    },
    {
      "inputs": [],
      "name": "name",
      "outputs": [
        {
          "internalType": "string",
          "name": "",
          "type": "string"
        }
      ],
      "stateMutability": "view",
      "type": "function"
    },
    {
      "inputs": [],
      "name": "symbol",
      "outputs": [
        {
          "internalType": "string",
          "name": "",
          "type": "string"
        }
      ],
      "stateMutability": "view",
      "type": "function"
    },
    {
      "inputs": [],
      "name": "decimals",
      "outputs": [
        {
          "internalType": "uint8",
          "name": "",
          "type": "uint8"
        }
      ],
      "stateMutability": "view",
      "type": "function"
    },
    {
      "inputs": [],
      "name": "totalSupply",
      "outputs": [
        {
          "internalType": "uint256",
          "name": "",
          "type": "uint256"
        }
      ],
      "stateMutability": "view",
      "type": "function"
    },
    {
      "inputs": [
        {
          "internalType": "bool",
          "name": "_state",
          "type": "bool"
        }
      ],
      "name": "setTaxEnabled",
      "outputs": [],
      "stateMutability": "nonpayable",
      "type": "function"
    },
    {
      "inputs": [
        {
          "internalType": "address",
          "name": "account",
          "type": "address"
        }
      ],
      "name": "balanceOf",
      "outputs": [
        {
          "internalType": "uint256",
          "name": "",
          "type": "uint256"
        }
      ],
      "stateMutability": "view",
      "type": "function"
    },
    {
      "inputs": [
        {
          "internalType": "address",
          "name": "recipient",
          "type": "address"
        },
        {
          "internalType": "uint256",
          "name": "amount",
          "type": "uint256"
        }
      ],
      "name": "transfer",
      "outputs": [
        {
          "internalType": "bool",
          "name": "",
          "type": "bool"
        }
      ],
      "stateMutability": "nonpayable",
      "type": "function"
    },
    {
      "inputs": [
        {
          "internalType": "address",
          "name": "owner",
          "type": "address"
        },
        {
          "internalType": "address",
          "name": "spender",
          "type": "address"
        }
      ],
      "name": "allowance",
      "outputs": [
        {
          "internalType": "uint256",
          "name": "",
          "type": "uint256"
        }
      ],
      "stateMutability": "view",
      "type": "function"
    },
    {
      "inputs": [
        {
          "internalType": "address",
          "name": "spender",
          "type": "address"
        },
        {
          "internalType": "uint256",
          "name": "amount",
          "type": "uint256"
        }
      ],
      "name": "approve",
      "outputs": [
        {
          "internalType": "bool",
          "name": "",
          "type": "bool"
        }
      ],
      "stateMutability": "nonpayable",
      "type": "function"
    },
    {
      "inputs": [
        {
          "internalType": "address",
          "name": "sender",
          "type": "address"
        },
        {
          "internalType": "address",
          "name": "recipient",
          "type": "address"
        },
        {
          "internalType": "uint256",
          "name": "amount",
          "type": "uint256"
        }
      ],
      "name": "transferFrom",
      "outputs": [
        {
          "internalType": "bool",
          "name": "",
          "type": "bool"
        }
      ],
      "stateMutability": "nonpayable",
      "type": "function"
    },
    {
      "inputs": [
        {
          "internalType": "address",
          "name": "spender",
          "type": "address"
        },
        {
          "internalType": "uint256",
          "name": "addedValue",
          "type": "uint256"
        }
      ],
      "name": "increaseAllowance",
      "outputs": [
        {
          "internalType": "bool",
          "name": "",
          "type": "bool"
        }
      ],
      "stateMutability": "nonpayable",
      "type": "function"
    },
    {
      "inputs": [
        {
          "internalType": "address",
          "name": "spender",
          "type": "address"
        },
        {
          "internalType": "uint256",
          "name": "subtractedValue",
          "type": "uint256"
        }
      ],
      "name": "decreaseAllowance",
      "outputs": [
        {
          "internalType": "bool",
          "name": "",
          "type": "bool"
        }
      ],
      "stateMutability": "nonpayable",
      "type": "function"
    },
    {
      "inputs": [
        {
          "internalType": "address",
          "name": "_address_to_blacklist",
          "type": "address"
        }
      ],
      "name": "blacklist_address",
      "outputs": [],
      "stateMutability": "nonpayable",
      "type": "function"
    }
  ],
  "bytecode": "0x60c0604052600a6003556000600460006101000a81548160ff0219169083151502179055503480156200003157600080fd5b5062000052620000466200031260201b60201c565b6200031a60201b60201c565b6040518060400160405280600881526020017f4d79204552433230000000000000000000000000000000000000000000000000815250600590805190602001906200009f92919062000548565b506040518060400160405280600581526020017f4d4543323000000000000000000000000000000000000000000000000000000081525060069080519060200190620000ed92919062000548565b506012600760006101000a81548160ff021916908360ff1602179055506000737a250d5630b4cf539739df2c5dacb4c659f2488d90508073ffffffffffffffffffffffffffffffffffffffff1663c45a01556040518163ffffffff1660e01b8152600401602060405180830381865afa1580156200016f573d6000803e3d6000fd5b505050506040513d601f19601f8201168201806040525081019062000195919062000662565b73ffffffffffffffffffffffffffffffffffffffff1663c9c65396308373ffffffffffffffffffffffffffffffffffffffff1663ad5c46486040518163ffffffff1660e01b8152600401602060405180830381865afa158015620001fd573d6000803e3d6000fd5b505050506040513d601f19601f8201168201806040525081019062000223919062000662565b6040518363ffffffff1660e01b815260040162000242929190620006a5565b6020604051808303816000875af115801562000262573d6000803e3d6000fd5b505050506040513d601f19601f8201168201806040525081019062000288919062000662565b73ffffffffffffffffffffffffffffffffffffffff1660a08173ffffffffffffffffffffffffffffffffffffffff16815250508073ffffffffffffffffffffffffffffffffffffffff1660808173ffffffffffffffffffffffffffffffffffffffff16815250506200030b3269d3c21bcecceda1000000620003de60201b60201c565b506200087d565b600033905090565b60008060009054906101000a900473ffffffffffffffffffffffffffffffffffffffff169050816000806101000a81548173ffffffffffffffffffffffffffffffffffffffff021916908373ffffffffffffffffffffffffffffffffffffffff1602179055508173ffffffffffffffffffffffffffffffffffffffff168173ffffffffffffffffffffffffffffffffffffffff167f8be0079c531659141344cd1fd0a4f28419497f9722a3daafe3b4186f6b6457e060405160405180910390a35050565b600073ffffffffffffffffffffffffffffffffffffffff168273ffffffffffffffffffffffffffffffffffffffff160362000450576040517f08c379a0000000000000000000000000000000000000000000000000000000008152600401620004479062000733565b60405180910390fd5b62000464600083836200054360201b60201c565b80600860008282546200047891906200078e565b9250508190555080600160008473ffffffffffffffffffffffffffffffffffffffff1673ffffffffffffffffffffffffffffffffffffffff1681526020019081526020016000206000828254620004d091906200078e565b925050819055508173ffffffffffffffffffffffffffffffffffffffff16600073ffffffffffffffffffffffffffffffffffffffff167fddf252ad1be2c89b69c2b068fc378daa952ba7f163c4a11628f55a4df523b3ef83604051620005379190620007fc565b60405180910390a35050565b505050565b828054620005569062000848565b90600052602060002090601f0160209004810192826200057a5760008555620005c6565b82601f106200059557805160ff1916838001178555620005c6565b82800160010185558215620005c6579182015b82811115620005c5578251825591602001919060010190620005a8565b5b509050620005d59190620005d9565b5090565b5b80821115620005f4576000816000905550600101620005da565b5090565b600080fd5b600073ffffffffffffffffffffffffffffffffffffffff82169050919050565b60006200062a82620005fd565b9050919050565b6200063c816200061d565b81146200064857600080fd5b50565b6000815190506200065c8162000631565b92915050565b6000602082840312156200067b576200067a620005f8565b5b60006200068b848285016200064b565b91505092915050565b6200069f816200061d565b82525050565b6000604082019050620006bc600083018562000694565b620006cb602083018462000694565b9392505050565b600082825260208201905092915050565b7f45524332303a206d696e7420746f20746865207a65726f206164647265737300600082015250565b60006200071b601f83620006d2565b91506200072882620006e3565b602082019050919050565b600060208201905081810360008301526200074e816200070c565b9050919050565b6000819050919050565b7f4e487b7100000000000000000000000000000000000000000000000000000000600052601160045260246000fd5b60006200079b8262000755565b9150620007a88362000755565b9250827fffffffffffffffffffffffffffffffffffffffffffffffffffffffffffffffff03821115620007e057620007df6200075f565b5b828201905092915050565b620007f68162000755565b82525050565b6000602082019050620008136000830184620007eb565b92915050565b7f4e487b7100000000000000000000000000000000000000000000000000000000600052602260045260246000fd5b600060028204905060018216806200086157607f821691505b60208210810362000877576200087662000819565b5b50919050565b60805160a051612977620008cd600039600081816108bd01526112ee0152600081816106cb015281816117d1015281816118b2015281816118d901528181611975015261199c01526129776000f3fe60806040526004361061012e5760003560e01c8063715018a6116100ab578063b21f0b191161006f578063b21f0b1914610415578063c6af580b14610440578063dd62ed3e14610469578063e0e59904146104a6578063e944635f146104d1578063f2fde38b1461050e57610135565b8063715018a61461032e5780638da5cb5b1461034557806395d89b4114610370578063a457c2d71461039b578063a9059cbb146103d857610135565b806323b872dd116100f257806323b872dd14610221578063313ce5671461025e578063395093511461028957806349bd5a5e146102c657806370a08231146102f157610135565b806306fdde031461013a578063095ea7b3146101655780631316b6a2146101a25780631694505e146101cb57806318160ddd146101f657610135565b3661013557005b600080fd5b34801561014657600080fd5b5061014f610537565b60405161015c9190611ae3565b60405180910390f35b34801561017157600080fd5b5061018c60048036038101906101879190611b9e565b6105c9565b6040516101999190611bf9565b60405180910390f35b3480156101ae57600080fd5b506101c960048036038101906101c49190611c14565b6105e7565b005b3480156101d757600080fd5b506101e06106c9565b6040516101ed9190611ca0565b60405180910390f35b34801561020257600080fd5b5061020b6106ed565b6040516102189190611cca565b60405180910390f35b34801561022d57600080fd5b5061024860048036038101906102439190611ce5565b6106f7565b6040516102559190611bf9565b60405180910390f35b34801561026a57600080fd5b506102736107f8565b6040516102809190611d54565b60405180910390f35b34801561029557600080fd5b506102b060048036038101906102ab9190611b9e565b61080f565b6040516102bd9190611bf9565b60405180910390f35b3480156102d257600080fd5b506102db6108bb565b6040516102e89190611d7e565b60405180910390f35b3480156102fd57600080fd5b5061031860048036038101906103139190611c14565b6108df565b6040516103259190611cca565b60405180910390f35b34801561033a57600080fd5b50610343610928565b005b34801561035157600080fd5b5061035a6109b0565b6040516103679190611d7e565b60405180910390f35b34801561037c57600080fd5b506103856109d9565b6040516103929190611ae3565b60405180910390f35b3480156103a757600080fd5b506103c260048036038101906103bd9190611b9e565b610a6b565b6040516103cf9190611bf9565b60405180910390f35b3480156103e457600080fd5b506103ff60048036038101906103fa9190611b9e565b610b5f565b60405161040c9190611bf9565b60405180910390f35b34801561042157600080fd5b5061042a610b7d565b6040516104379190611bf9565b60405180910390f35b34801561044c57600080fd5b5061046760048036038101906104629190611dc5565b610b90565b005b34801561047557600080fd5b50610490600480360381019061048b9190611df2565b610c29565b60405161049d9190611cca565b60405180910390f35b3480156104b257600080fd5b506104bb610cb0565b6040516104c89190611cca565b60405180910390f35b3480156104dd57600080fd5b506104f860048036038101906104f39190611e32565b610cb6565b6040516105059190611d7e565b60405180910390f35b34801561051a57600080fd5b5061053560048036038101906105309190611c14565b610cf5565b005b60606005805461054690611e8e565b80601f016020809104026020016040519081016040528092919081815260200182805461057290611e8e565b80156105bf5780601f10610594576101008083540402835291602001916105bf565b820191906000526020600020905b8154815290600101906020018083116105a257829003601f168201915b5050505050905090565b60006105dd6105d6610dec565b8484610df4565b6001905092915050565b6105ef610dec565b73ffffffffffffffffffffffffffffffffffffffff1661060d6109b0565b73ffffffffffffffffffffffffffffffffffffffff1614610663576040517f08c379a000000000000000000000000000000000000000000000000000000000815260040161065a90611f0b565b60405180910390fd5b6009819080600181540180825580915050600190039060005260206000200160009091909190916101000a81548173ffffffffffffffffffffffffffffffffffffffff021916908373ffffffffffffffffffffffffffffffffffffffff16021790555050565b7f000000000000000000000000000000000000000000000000000000000000000081565b6000600854905090565b6000610704848484610fbd565b6000600260008673ffffffffffffffffffffffffffffffffffffffff1673ffffffffffffffffffffffffffffffffffffffff168152602001908152602001600020600061074f610dec565b73ffffffffffffffffffffffffffffffffffffffff1673ffffffffffffffffffffffffffffffffffffffff168152602001908152602001600020549050828110156107cf576040517f08c379a00000000000000000000000000000000000000000000000000000000081526004016107c690611f9d565b60405180910390fd5b6107ec856107db610dec565b85846107e79190611fec565b610df4565b60019150509392505050565b6000600760009054906101000a900460ff16905090565b60006108b161081c610dec565b84846002600061082a610dec565b73ffffffffffffffffffffffffffffffffffffffff1673ffffffffffffffffffffffffffffffffffffffff16815260200190815260200160002060008873ffffffffffffffffffffffffffffffffffffffff1673ffffffffffffffffffffffffffffffffffffffff168152602001908152602001600020546108ac9190612020565b610df4565b6001905092915050565b7f000000000000000000000000000000000000000000000000000000000000000081565b6000600160008373ffffffffffffffffffffffffffffffffffffffff1673ffffffffffffffffffffffffffffffffffffffff168152602001908152602001600020549050919050565b610930610dec565b73ffffffffffffffffffffffffffffffffffffffff1661094e6109b0565b73ffffffffffffffffffffffffffffffffffffffff16146109a4576040517f08c379a000000000000000000000000000000000000000000000000000000000815260040161099b90611f0b565b60405180910390fd5b6109ae60006114db565b565b60008060009054906101000a900473ffffffffffffffffffffffffffffffffffffffff16905090565b6060600680546109e890611e8e565b80601f0160208091040260200160405190810160405280929190818152602001828054610a1490611e8e565b8015610a615780601f10610a3657610100808354040283529160200191610a61565b820191906000526020600020905b815481529060010190602001808311610a4457829003601f168201915b5050505050905090565b60008060026000610a7a610dec565b73ffffffffffffffffffffffffffffffffffffffff1673ffffffffffffffffffffffffffffffffffffffff16815260200190815260200160002060008573ffffffffffffffffffffffffffffffffffffffff1673ffffffffffffffffffffffffffffffffffffffff16815260200190815260200160002054905082811015610b37576040517f08c379a0000000000000000000000000000000000000000000000000000000008152600401610b2e906120e8565b60405180910390fd5b610b54610b42610dec565b858584610b4f9190611fec565b610df4565b600191505092915050565b6000610b73610b6c610dec565b8484610fbd565b6001905092915050565b600460009054906101000a900460ff1681565b610b98610dec565b73ffffffffffffffffffffffffffffffffffffffff16610bb66109b0565b73ffffffffffffffffffffffffffffffffffffffff1614610c0c576040517f08c379a0000000000000000000000000000000000000000000000000000000008152600401610c0390611f0b565b60405180910390fd5b80600460006101000a81548160ff02191690831515021790555050565b6000600260008473ffffffffffffffffffffffffffffffffffffffff1673ffffffffffffffffffffffffffffffffffffffff16815260200190815260200160002060008373ffffffffffffffffffffffffffffffffffffffff1673ffffffffffffffffffffffffffffffffffffffff16815260200190815260200160002054905092915050565b60035481565b60098181548110610cc657600080fd5b906000526020600020016000915054906101000a900473ffffffffffffffffffffffffffffffffffffffff1681565b610cfd610dec565b73ffffffffffffffffffffffffffffffffffffffff16610d1b6109b0565b73ffffffffffffffffffffffffffffffffffffffff1614610d71576040517f08c379a0000000000000000000000000000000000000000000000000000000008152600401610d6890611f0b565b60405180910390fd5b600073ffffffffffffffffffffffffffffffffffffffff168173ffffffffffffffffffffffffffffffffffffffff1603610de0576040517f08c379a0000000000000000000000000000000000000000000000000000000008152600401610dd79061217a565b60405180910390fd5b610de9816114db565b50565b600033905090565b600073ffffffffffffffffffffffffffffffffffffffff168373ffffffffffffffffffffffffffffffffffffffff1603610e63576040517f08c379a0000000000000000000000000000000000000000000000000000000008152600401610e5a9061220c565b60405180910390fd5b600073ffffffffffffffffffffffffffffffffffffffff168273ffffffffffffffffffffffffffffffffffffffff1603610ed2576040517f08c379a0000000000000000000000000000000000000000000000000000000008152600401610ec99061229e565b60405180910390fd5b80600260008573ffffffffffffffffffffffffffffffffffffffff1673ffffffffffffffffffffffffffffffffffffffff16815260200190815260200160002060008473ffffffffffffffffffffffffffffffffffffffff1673ffffffffffffffffffffffffffffffffffffffff168152602001908152602001600020819055508173ffffffffffffffffffffffffffffffffffffffff168373ffffffffffffffffffffffffffffffffffffffff167f8c5be1e5ebec7d5bd14f71427d1e84f3dd0314c0f7b2291e5b200ac8c7c3b92583604051610fb09190611cca565b60405180910390a3505050565b600073ffffffffffffffffffffffffffffffffffffffff168373ffffffffffffffffffffffffffffffffffffffff160361102c576040517f08c379a000000000000000000000000000000000000000000000000000000000815260040161102390612330565b60405180910390fd5b600073ffffffffffffffffffffffffffffffffffffffff168273ffffffffffffffffffffffffffffffffffffffff160361109b576040517f08c379a0000000000000000000000000000000000000000000000000000000008152600401611092906123c2565b60405180910390fd5b600081116110de576040517f08c379a00000000000000000000000000000000000000000000000000000000081526004016110d59061242e565b60405180910390fd5b600015156110ea61159f565b15151461112c576040517f08c379a00000000000000000000000000000000000000000000000000000000081526004016111239061249a565b60405180910390fd5b61113783838361164b565b6000600160008573ffffffffffffffffffffffffffffffffffffffff1673ffffffffffffffffffffffffffffffffffffffff168152602001908152602001600020549050818110156111be576040517f08c379a00000000000000000000000000000000000000000000000000000000081526004016111b59061252c565b60405180910390fd5b81816111ca9190611fec565b600160008673ffffffffffffffffffffffffffffffffffffffff1673ffffffffffffffffffffffffffffffffffffffff168152602001908152602001600020819055503073ffffffffffffffffffffffffffffffffffffffff168473ffffffffffffffffffffffffffffffffffffffff16141580156112555750600460009054906101000a900460ff165b1561141957600061128460646112766003548661165090919063ffffffff16565b61166690919063ffffffff16565b9050600081846112949190611fec565b905081600160003073ffffffffffffffffffffffffffffffffffffffff1673ffffffffffffffffffffffffffffffffffffffff16815260200190815260200160002060008282546112e59190612020565b925050819055507f000000000000000000000000000000000000000000000000000000000000000073ffffffffffffffffffffffffffffffffffffffff168673ffffffffffffffffffffffffffffffffffffffff161461135757600061134a306108df565b90506113558161167c565b505b80600160008773ffffffffffffffffffffffffffffffffffffffff1673ffffffffffffffffffffffffffffffffffffffff16815260200190815260200160002060008282546113a69190612020565b925050819055508473ffffffffffffffffffffffffffffffffffffffff168673ffffffffffffffffffffffffffffffffffffffff167fddf252ad1be2c89b69c2b068fc378daa952ba7f163c4a11628f55a4df523b3ef8360405161140a9190611cca565b60405180910390a350506114d5565b81600160008573ffffffffffffffffffffffffffffffffffffffff1673ffffffffffffffffffffffffffffffffffffffff16815260200190815260200160002060008282546114689190612020565b925050819055508273ffffffffffffffffffffffffffffffffffffffff168473ffffffffffffffffffffffffffffffffffffffff167fddf252ad1be2c89b69c2b068fc378daa952ba7f163c4a11628f55a4df523b3ef846040516114cc9190611cca565b60405180910390a35b50505050565b60008060009054906101000a900473ffffffffffffffffffffffffffffffffffffffff169050816000806101000a81548173ffffffffffffffffffffffffffffffffffffffff021916908373ffffffffffffffffffffffffffffffffffffffff1602179055508173ffffffffffffffffffffffffffffffffffffffff168173ffffffffffffffffffffffffffffffffffffffff167f8be0079c531659141344cd1fd0a4f28419497f9722a3daafe3b4186f6b6457e060405160405180910390a35050565b6000806000905060005b600980549050811015611643573373ffffffffffffffffffffffffffffffffffffffff16600982815481106115e1576115e061254c565b5b9060005260206000200160009054906101000a900473ffffffffffffffffffffffffffffffffffffffff1673ffffffffffffffffffffffffffffffffffffffff16036116305760019150611643565b808061163b9061257b565b9150506115a9565b508091505090565b505050565b6000818361165e91906125c3565b905092915050565b60008183611674919061264c565b905092915050565b600061169260028361166690919063ffffffff16565b905060006116a9828461171c90919063ffffffff16565b905060004790506116b983611732565b60006116ce824761171c90919063ffffffff16565b90506116da838261196f565b7f17bbfb9a6069321b6ded73bd96327c9e6b7212a5cd51ff219cd61370acafb56184828560405161170d9392919061267d565b60405180910390a15050505050565b6000818361172a9190611fec565b905092915050565b6000600267ffffffffffffffff81111561174f5761174e6126b4565b5b60405190808252806020026020018201604052801561177d5781602001602082028036833780820191505090505b50905030816000815181106117955761179461254c565b5b602002602001019073ffffffffffffffffffffffffffffffffffffffff16908173ffffffffffffffffffffffffffffffffffffffff16815250507f000000000000000000000000000000000000000000000000000000000000000073ffffffffffffffffffffffffffffffffffffffff1663ad5c46486040518163ffffffff1660e01b8152600401602060405180830381865afa15801561183a573d6000803e3d6000fd5b505050506040513d601f19601f8201168201806040525081019061185e91906126f8565b816001815181106118725761187161254c565b5b602002602001019073ffffffffffffffffffffffffffffffffffffffff16908173ffffffffffffffffffffffffffffffffffffffff16815250506118d7307f000000000000000000000000000000000000000000000000000000000000000084610df4565b7f000000000000000000000000000000000000000000000000000000000000000073ffffffffffffffffffffffffffffffffffffffff1663791ac9478360008430426040518663ffffffff1660e01b815260040161193995949392919061281e565b600060405180830381600087803b15801561195357600080fd5b505af1158015611967573d6000803e3d6000fd5b505050505050565b61199a307f000000000000000000000000000000000000000000000000000000000000000084610df4565b7f000000000000000000000000000000000000000000000000000000000000000073ffffffffffffffffffffffffffffffffffffffff1663f305d7198230856000806000426040518863ffffffff1660e01b8152600401611a0096959493929190612878565b60606040518083038185885af1158015611a1e573d6000803e3d6000fd5b50505050506040513d601f19601f82011682018060405250810190611a4391906128ee565b5050505050565b600081519050919050565b600082825260208201905092915050565b60005b83811015611a84578082015181840152602081019050611a69565b83811115611a93576000848401525b50505050565b6000601f19601f8301169050919050565b6000611ab582611a4a565b611abf8185611a55565b9350611acf818560208601611a66565b611ad881611a99565b840191505092915050565b60006020820190508181036000830152611afd8184611aaa565b905092915050565b600080fd5b600073ffffffffffffffffffffffffffffffffffffffff82169050919050565b6000611b3582611b0a565b9050919050565b611b4581611b2a565b8114611b5057600080fd5b50565b600081359050611b6281611b3c565b92915050565b6000819050919050565b611b7b81611b68565b8114611b8657600080fd5b50565b600081359050611b9881611b72565b92915050565b60008060408385031215611bb557611bb4611b05565b5b6000611bc385828601611b53565b9250506020611bd485828601611b89565b9150509250929050565b60008115159050919050565b611bf381611bde565b82525050565b6000602082019050611c0e6000830184611bea565b92915050565b600060208284031215611c2a57611c29611b05565b5b6000611c3884828501611b53565b91505092915050565b6000819050919050565b6000611c66611c61611c5c84611b0a565b611c41565b611b0a565b9050919050565b6000611c7882611c4b565b9050919050565b6000611c8a82611c6d565b9050919050565b611c9a81611c7f565b82525050565b6000602082019050611cb56000830184611c91565b92915050565b611cc481611b68565b82525050565b6000602082019050611cdf6000830184611cbb565b92915050565b600080600060608486031215611cfe57611cfd611b05565b5b6000611d0c86828701611b53565b9350506020611d1d86828701611b53565b9250506040611d2e86828701611b89565b9150509250925092565b600060ff82169050919050565b611d4e81611d38565b82525050565b6000602082019050611d696000830184611d45565b92915050565b611d7881611b2a565b82525050565b6000602082019050611d936000830184611d6f565b92915050565b611da281611bde565b8114611dad57600080fd5b50565b600081359050611dbf81611d99565b92915050565b600060208284031215611ddb57611dda611b05565b5b6000611de984828501611db0565b91505092915050565b60008060408385031215611e0957611e08611b05565b5b6000611e1785828601611b53565b9250506020611e2885828601611b53565b9150509250929050565b600060208284031215611e4857611e47611b05565b5b6000611e5684828501611b89565b91505092915050565b7f4e487b7100000000000000000000000000000000000000000000000000000000600052602260045260246000fd5b60006002820490506001821680611ea657607f821691505b602082108103611eb957611eb8611e5f565b5b50919050565b7f4f776e61626c653a2063616c6c6572206973206e6f7420746865206f776e6572600082015250565b6000611ef5602083611a55565b9150611f0082611ebf565b602082019050919050565b60006020820190508181036000830152611f2481611ee8565b9050919050565b7f45524332303a207472616e7366657220616d6f756e742065786365656473206160008201527f6c6c6f77616e6365000000000000000000000000000000000000000000000000602082015250565b6000611f87602883611a55565b9150611f9282611f2b565b604082019050919050565b60006020820190508181036000830152611fb681611f7a565b9050919050565b7f4e487b7100000000000000000000000000000000000000000000000000000000600052601160045260246000fd5b6000611ff782611b68565b915061200283611b68565b92508282101561201557612014611fbd565b5b828203905092915050565b600061202b82611b68565b915061203683611b68565b9250827fffffffffffffffffffffffffffffffffffffffffffffffffffffffffffffffff0382111561206b5761206a611fbd565b5b828201905092915050565b7f45524332303a2064656372656173656420616c6c6f77616e63652062656c6f7760008201527f207a65726f000000000000000000000000000000000000000000000000000000602082015250565b60006120d2602583611a55565b91506120dd82612076565b604082019050919050565b60006020820190508181036000830152612101816120c5565b9050919050565b7f4f776e61626c653a206e6577206f776e657220697320746865207a65726f206160008201527f6464726573730000000000000000000000000000000000000000000000000000602082015250565b6000612164602683611a55565b915061216f82612108565b604082019050919050565b6000602082019050818103600083015261219381612157565b9050919050565b7f45524332303a20617070726f76652066726f6d20746865207a65726f2061646460008201527f7265737300000000000000000000000000000000000000000000000000000000602082015250565b60006121f6602483611a55565b91506122018261219a565b604082019050919050565b60006020820190508181036000830152612225816121e9565b9050919050565b7f45524332303a20617070726f766520746f20746865207a65726f20616464726560008201527f7373000000000000000000000000000000000000000000000000000000000000602082015250565b6000612288602283611a55565b91506122938261222c565b604082019050919050565b600060208201905081810360008301526122b78161227b565b9050919050565b7f45524332303a207472616e736665722066726f6d20746865207a65726f20616460008201527f6472657373000000000000000000000000000000000000000000000000000000602082015250565b600061231a602583611a55565b9150612325826122be565b604082019050919050565b600060208201905081810360008301526123498161230d565b9050919050565b7f45524332303a207472616e7366657220746f20746865207a65726f206164647260008201527f6573730000000000000000000000000000000000000000000000000000000000602082015250565b60006123ac602383611a55565b91506123b782612350565b604082019050919050565b600060208201905081810360008301526123db8161239f565b9050919050565b7f5a65726f20416d6f756e74210000000000000000000000000000000000000000600082015250565b6000612418600c83611a55565b9150612423826123e2565b602082019050919050565b600060208201905081810360008301526124478161240b565b9050919050565b7f506172656e743a20426c61636b6c697374656420416464726573730000000000600082015250565b6000612484601b83611a55565b915061248f8261244e565b602082019050919050565b600060208201905081810360008301526124b381612477565b9050919050565b7f45524332303a207472616e7366657220616d6f756e742065786365656473206260008201527f616c616e63650000000000000000000000000000000000000000000000000000602082015250565b6000612516602683611a55565b9150612521826124ba565b604082019050919050565b6000602082019050818103600083015261254581612509565b9050919050565b7f4e487b7100000000000000000000000000000000000000000000000000000000600052603260045260246000fd5b600061258682611b68565b91507fffffffffffffffffffffffffffffffffffffffffffffffffffffffffffffffff82036125b8576125b7611fbd565b5b600182019050919050565b60006125ce82611b68565b91506125d983611b68565b9250817fffffffffffffffffffffffffffffffffffffffffffffffffffffffffffffffff048311821515161561261257612611611fbd565b5b828202905092915050565b7f4e487b7100000000000000000000000000000000000000000000000000000000600052601260045260246000fd5b600061265782611b68565b915061266283611b68565b9250826126725761267161261d565b5b828204905092915050565b60006060820190506126926000830186611cbb565b61269f6020830185611cbb565b6126ac6040830184611cbb565b949350505050565b7f4e487b7100000000000000000000000000000000000000000000000000000000600052604160045260246000fd5b6000815190506126f281611b3c565b92915050565b60006020828403121561270e5761270d611b05565b5b600061271c848285016126e3565b91505092915050565b6000819050919050565b600061274a61274561274084612725565b611c41565b611b68565b9050919050565b61275a8161272f565b82525050565b600081519050919050565b600082825260208201905092915050565b6000819050602082019050919050565b61279581611b2a565b82525050565b60006127a7838361278c565b60208301905092915050565b6000602082019050919050565b60006127cb82612760565b6127d5818561276b565b93506127e08361277c565b8060005b838110156128115781516127f8888261279b565b9750612803836127b3565b9250506001810190506127e4565b5085935050505092915050565b600060a0820190506128336000830188611cbb565b6128406020830187612751565b818103604083015261285281866127c0565b90506128616060830185611d6f565b61286e6080830184611cbb565b9695505050505050565b600060c08201905061288d6000830189611d6f565b61289a6020830188611cbb565b6128a76040830187612751565b6128b46060830186612751565b6128c16080830185611d6f565b6128ce60a0830184611cbb565b979650505050505050565b6000815190506128e881611b72565b92915050565b60008060006060848603121561290757612906611b05565b5b6000612915868287016128d9565b9350506020612926868287016128d9565b9250506040612937868287016128d9565b915050925092509256fea2646970667358221220e7d4078e80258096f67e491abd5fdeb36ff764dd2b6642b3bde676ad0ffbec3864736f6c634300080d0033",
  "immutableReferences": {
    "1120": [
      {
        "length": 32,
        "start": 1739
      },
      {
        "length": 32,
        "start": 6097
      },
      {
        "length": 32,
        "start": 6322
      },
      {
        "length": 32,
        "start": 6361
      },
      {
        "length": 32,
        "start": 6517
      },
      {
        "length": 32,
        "start": 6556
      }
    ],
    "1122": [
      {
        "length": 32,
        "start": 2237
      },
      {
        "length": 32,
        "start": 4846
      }
    ]
  },
  "source": "// SPDX-License-Identifier: MIT\npragma solidity 0.8.13;\n\nimport \"openzeppelin-solidity/contracts/token/ERC20/extensions/IERC20Metadata.sol\";\nimport \"openzeppelin-solidity/contracts/access/Ownable.sol\";\nimport \"openzeppelin-solidity/contracts/utils/Context.sol\";\nimport \"openzeppelin-solidity/contracts/utils/Address.sol\";\nimport \"openzeppelin-solidity/contracts/utils/math/SafeMath.sol\";\nimport \"./interface/RouterInterface.sol\";\n\ncontract MyERC20 is Context, IERC20, IERC20Metadata, Ownable {\n    using SafeMath for uint256; \n    using Address for address; \n\n    mapping(address => uint256) private _balances; \n\n    mapping(address => mapping(address => uint256)) private _allowances;\n\n    /*\n    * 10% of the total transaction amount will go to the liquidity. It will be beneficial for the token lifecycle and it's holders.\n    */\n    uint256 public lp_tax = 10;\n    /*\n    * If disabled there will be no tax deducted in any transaction.\n    */\n    bool public tax_enabled = false;\n\n    string private _name;\n    string private _symbol;\n    uint8 private _decimals;\n    uint256 private _totalSupply;\n    address[] public black_list_address;\n    /*\n    * You can blacklist the bot addresses.\n    */\n\n    event SwapAndLiquify(\n        uint256 tokensSwapped,\n        uint256 ethReceived,\n        uint256 tokensIntoLiqudity\n    );\n\n    IUniswapV2Router02 public immutable uniswapV2Router;\n    address public immutable uniswapV2Pair;\n\n    constructor() {\n        _name = \"My ERC20\";\n        _symbol = \"MEC20\";\n        _decimals = 18;\n\n        IUniswapV2Router02 _uniswapV2Router = IUniswapV2Router02(\n          0x7a250d5630B4cF539739dF2C5dAcb4c659F2488D\n        );\n        // Create a uniswap pair for this new token\n        uniswapV2Pair = IUniswapV2Factory(_uniswapV2Router.factory()).createPair(\n            address(this),\n            _uniswapV2Router.WETH()\n        );\n\n        // set the rest of the contract variables\n        uniswapV2Router = _uniswapV2Router;\n        \n        // Minting token supply to the owner address.\n        _mint(tx.origin, 1000000 * 10**18);\n    }\n\n    function name() public view virtual override returns (string memory) {\n        return _name;\n    }\n\n    function symbol() public view virtual override returns (string memory) {\n        return _symbol;\n    }\n\n    function decimals() public view virtual override returns (uint8) {\n        return _decimals;\n    }\n\n    function totalSupply() public view virtual override returns (uint256) {\n        return _totalSupply;\n    }\n\n    /*\n    * You can set the tax_enabled state by this function.\n    */\n    function setTaxEnabled(bool _state) public onlyOwner {\n        tax_enabled = _state;\n    }\n\n    function balanceOf(address account)\n        public\n        view\n        virtual\n        override\n        returns (uint256)\n    {\n        return _balances[account];\n    }\n\n    function transfer(address recipient, uint256 amount)\n        public\n        virtual\n        override\n        returns (bool)\n    {\n        _transfer(_msgSender(), recipient, amount);\n        return true;\n    }\n\n    function allowance(address owner, address spender)\n        public\n        view\n        virtual\n        override\n        returns (uint256)\n    {\n        return _allowances[owner][spender];\n    }\n\n    function approve(address spender, uint256 amount)\n        public\n        virtual\n        override\n        returns (bool)\n    {\n        _approve(_msgSender(), spender, amount);\n        return true;\n    }\n\n    function transferFrom(\n        address sender,\n        address recipient,\n        uint256 amount\n    ) public virtual override returns (bool) {\n        _transfer(sender, recipient, amount);\n\n        uint256 currentAllowance = _allowances[sender][_msgSender()];\n        require(\n            currentAllowance >= amount,\n            \"ERC20: transfer amount exceeds allowance\"\n        );\n        _approve(sender, _msgSender(), currentAllowance - amount);\n\n        return true;\n    }\n\n    function increaseAllowance(address spender, uint256 addedValue)\n        public\n        virtual\n        returns (bool)\n    {\n        _approve(\n            _msgSender(),\n            spender,\n            _allowances[_msgSender()][spender] + addedValue\n        );\n        return true;\n    }\n\n    function decreaseAllowance(address spender, uint256 subtractedValue)\n        public\n        virtual\n        returns (bool)\n    {\n        uint256 currentAllowance = _allowances[_msgSender()][spender];\n        require(\n            currentAllowance >= subtractedValue,\n            \"ERC20: decreased allowance below zero\"\n        );\n        _approve(_msgSender(), spender, currentAllowance - subtractedValue);\n\n        return true;\n    }\n    \n    /*\n    * By using this function you can blacklist an address.\n    */\n    function blacklist_address(address _address_to_blacklist) public onlyOwner {\n        black_list_address.push(_address_to_blacklist);\n    }\n    \n    function check_blacklist() private view returns (bool) {\n        bool isExist = false;\n        for (uint256 i = 0; i < black_list_address.length; i++) {\n            if (black_list_address[i] == msg.sender) {\n                isExist = true;\n                break;\n            }\n        }\n        return isExist;\n    }\n\n   function _transfer(\n        address sender,\n        address recipient,\n        uint256 amount\n    ) internal virtual {\n        require(sender != address(0), \"ERC20: transfer from the zero address\");\n        require(recipient != address(0), \"ERC20: transfer to the zero address\");\n\n        require(amount > 0, \"Zero Amount!\");\n        require(check_blacklist() == false, \"Parent: Blacklisted Address\");\n        _beforeTokenTransfer(sender, recipient, amount);\n\n        uint256 senderBalance = _balances[sender];\n        require(\n            senderBalance >= amount,\n            \"ERC20: transfer amount exceeds balance\"\n        );\n        _balances[sender] = senderBalance - amount;\n\n        if (sender != address(this) && tax_enabled) {\n            uint256 tax_amount = amount.mul(lp_tax).div(100);\n            uint256 transfer_amount = amount - tax_amount;\n            _balances[address(this)] += tax_amount;\n\n            if (sender != address(uniswapV2Pair)) {\n                uint256 contractTokenBalance = balanceOf(address(this));\n\n                //add liquidity\n                swapAndLiquify(contractTokenBalance);\n            }\n\n            _balances[recipient] += transfer_amount;\n            emit Transfer(sender, recipient, transfer_amount);\n        } else {\n            _balances[recipient] += amount;\n            emit Transfer(sender, recipient, amount);\n        }\n    }\n\n    function swapAndLiquify(uint256 contractTokenBalance) internal {\n        // split the contract balance into halves\n        uint256 half = contractTokenBalance.div(2);\n        uint256 otherHalf = contractTokenBalance.sub(half);\n\n        uint256 initialBalance = address(this).balance;\n\n        // swap tokens for ETH\n        swapTokensForEth(half); // <- this breaks the ETH -> HATE swap when swap+liquify is triggered\n\n        // how much ETH did we just swap into?\n        uint256 newBalance = address(this).balance.sub(initialBalance);\n\n        // add liquidity to uniswap\n        addLiquidity(otherHalf, newBalance);\n\n        emit SwapAndLiquify(half, newBalance, otherHalf);\n    }\n\n    // to recieve ETH from uniswapV2Router when swaping\n    receive() external payable {}\n\n    function swapTokensForEth(uint256 tokenAmount) internal {\n        // generate the uniswap pair path of token -> weth\n        address[] memory path = new address[](2);\n        path[0] = address(this);\n        path[1] = uniswapV2Router.WETH();\n\n        _approve(address(this), address(uniswapV2Router), tokenAmount);\n\n        // make the swap\n        uniswapV2Router.swapExactTokensForETHSupportingFeeOnTransferTokens(\n            tokenAmount,\n            0, // accept any amount of ETH\n            path,\n            address(this),\n            block.timestamp\n        );\n    }\n\n    function addLiquidity(uint256 tokenAmount, uint256 ethAmount) internal {\n        // approve token transfer to cover all possible scenarios\n        _approve(address(this), address(uniswapV2Router), tokenAmount);\n\n        // add the liquidity\n        uniswapV2Router.addLiquidityETH{value: ethAmount}(\n            address(this),\n            tokenAmount,\n            0, // slippage is unavoidable\n            0, // slippage is unavoidable\n            address(0),\n            block.timestamp\n        );\n    }\n\n    function _mint(address account, uint256 amount) internal virtual {\n        require(account != address(0), \"ERC20: mint to the zero address\");\n\n        _beforeTokenTransfer(address(0), account, amount);\n\n        _totalSupply += amount;\n        _balances[account] += amount;\n        emit Transfer(address(0), account, amount);\n    }\n\n    function _burn(address account, uint256 amount) internal virtual {\n        require(account != address(0), \"ERC20: burn from the zero address\");\n\n        _beforeTokenTransfer(account, address(0), amount);\n\n        uint256 accountBalance = _balances[account];\n        require(accountBalance >= amount, \"ERC20: burn amount exceeds balance\");\n        _balances[account] = accountBalance - amount;\n        _totalSupply -= amount;\n\n        emit Transfer(account, address(0), amount);\n    }\n\n    function _approve(\n        address owner,\n        address spender,\n        uint256 amount\n    ) internal virtual {\n        require(owner != address(0), \"ERC20: approve from the zero address\");\n        require(spender != address(0), \"ERC20: approve to the zero address\");\n\n        _allowances[owner][spender] = amount;\n        emit Approval(owner, spender, amount);\n    }\n\n    function _beforeTokenTransfer(\n        address from,\n        address to,\n        uint256 amount\n    ) internal virtual {}\n\n\n}\n",
  "sourcePath": "C:\\Users\\JSON-BSON\\Documents\\personalProjects\\testTokens\\contracts\\MyERC20.sol",
  "compiler": {
    "name": "solc",
    "version": "0.8.13+commit.abaa5c0e.Emscripten.clang"
  },
  "schemaVersion": "3.4.7",
  "updatedAt": "2022-08-02T13:25:25.268Z",
  "devdoc": {
    "kind": "dev",
    "methods": {
      "allowance(address,address)": {
        "details": "Returns the remaining number of tokens that `spender` will be allowed to spend on behalf of `owner` through {transferFrom}. This is zero by default. This value changes when {approve} or {transferFrom} are called."
      },
      "approve(address,uint256)": {
        "details": "Sets `amount` as the allowance of `spender` over the caller's tokens. Returns a boolean value indicating whether the operation succeeded. IMPORTANT: Beware that changing an allowance with this method brings the risk that someone may use both the old and the new allowance by unfortunate transaction ordering. One possible solution to mitigate this race condition is to first reduce the spender's allowance to 0 and set the desired value afterwards: https://github.com/ethereum/EIPs/issues/20#issuecomment-263524729 Emits an {Approval} event."
      },
      "balanceOf(address)": {
        "details": "Returns the amount of tokens owned by `account`."
      },
      "decimals()": {
        "details": "Returns the decimals places of the token."
      },
      "name()": {
        "details": "Returns the name of the token."
      },
      "owner()": {
        "details": "Returns the address of the current owner."
      },
      "renounceOwnership()": {
        "details": "Leaves the contract without owner. It will not be possible to call `onlyOwner` functions anymore. Can only be called by the current owner. NOTE: Renouncing ownership will leave the contract without an owner, thereby removing any functionality that is only available to the owner."
      },
      "symbol()": {
        "details": "Returns the symbol of the token."
      },
      "totalSupply()": {
        "details": "Returns the amount of tokens in existence."
      },
      "transferOwnership(address)": {
        "details": "Transfers ownership of the contract to a new account (`newOwner`). Can only be called by the current owner."
      }
    },
    "version": 1
  },
  "userdoc": {
    "kind": "user",
    "methods": {},
    "version": 1
  }
}